{
  "_format": "hh-sol-artifact-1",
  "contractName": "Rewards",
  "sourceName": "contracts/Rewards.sol",
  "abi": [
    {
      "inputs": [
        {
          "internalType": "string",
          "name": "name",
          "type": "string"
        },
        {
          "internalType": "string",
          "name": "symbol",
          "type": "string"
        }
      ],
      "stateMutability": "nonpayable",
      "type": "constructor"
    },
    {
      "anonymous": false,
      "inputs": [
        {
          "indexed": true,
          "internalType": "address",
          "name": "owner",
          "type": "address"
        },
        {
          "indexed": true,
          "internalType": "address",
          "name": "approved",
          "type": "address"
        },
        {
          "indexed": true,
          "internalType": "uint256",
          "name": "tokenId",
          "type": "uint256"
        }
      ],
      "name": "Approval",
      "type": "event"
    },
    {
      "anonymous": false,
      "inputs": [
        {
          "indexed": true,
          "internalType": "address",
          "name": "owner",
          "type": "address"
        },
        {
          "indexed": true,
          "internalType": "address",
          "name": "operator",
          "type": "address"
        },
        {
          "indexed": false,
          "internalType": "bool",
          "name": "approved",
          "type": "bool"
        }
      ],
      "name": "ApprovalForAll",
      "type": "event"
    },
    {
      "anonymous": false,
      "inputs": [
        {
          "indexed": true,
          "internalType": "address",
          "name": "previousOwner",
          "type": "address"
        },
        {
          "indexed": true,
          "internalType": "address",
          "name": "newOwner",
          "type": "address"
        }
      ],
      "name": "OwnershipTransferred",
      "type": "event"
    },
    {
      "anonymous": false,
      "inputs": [
        {
          "indexed": true,
          "internalType": "address",
          "name": "from",
          "type": "address"
        },
        {
          "indexed": true,
          "internalType": "address",
          "name": "to",
          "type": "address"
        },
        {
          "indexed": true,
          "internalType": "uint256",
          "name": "tokenId",
          "type": "uint256"
        }
      ],
      "name": "Transfer",
      "type": "event"
    },
    {
      "inputs": [
        {
          "internalType": "address",
          "name": "to",
          "type": "address"
        },
        {
          "internalType": "uint256",
          "name": "tokenId",
          "type": "uint256"
        }
      ],
      "name": "approve",
      "outputs": [],
      "stateMutability": "nonpayable",
      "type": "function"
    },
    {
      "inputs": [
        {
          "internalType": "address",
          "name": "owner",
          "type": "address"
        }
      ],
      "name": "balanceOf",
      "outputs": [
        {
          "internalType": "uint256",
          "name": "",
          "type": "uint256"
        }
      ],
      "stateMutability": "view",
      "type": "function"
    },
    {
      "inputs": [
        {
          "internalType": "uint256",
          "name": "tokenId",
          "type": "uint256"
        }
      ],
      "name": "getApproved",
      "outputs": [
        {
          "internalType": "address",
          "name": "",
          "type": "address"
        }
      ],
      "stateMutability": "view",
      "type": "function"
    },
    {
      "inputs": [
        {
          "internalType": "address",
          "name": "owner",
          "type": "address"
        },
        {
          "internalType": "address",
          "name": "operator",
          "type": "address"
        }
      ],
      "name": "isApprovedForAll",
      "outputs": [
        {
          "internalType": "bool",
          "name": "",
          "type": "bool"
        }
      ],
      "stateMutability": "view",
      "type": "function"
    },
    {
      "inputs": [],
      "name": "name",
      "outputs": [
        {
          "internalType": "string",
          "name": "",
          "type": "string"
        }
      ],
      "stateMutability": "view",
      "type": "function"
    },
    {
      "inputs": [],
      "name": "owner",
      "outputs": [
        {
          "internalType": "address",
          "name": "",
          "type": "address"
        }
      ],
      "stateMutability": "view",
      "type": "function"
    },
    {
      "inputs": [
        {
          "internalType": "uint256",
          "name": "tokenId",
          "type": "uint256"
        }
      ],
      "name": "ownerOf",
      "outputs": [
        {
          "internalType": "address",
          "name": "",
          "type": "address"
        }
      ],
      "stateMutability": "view",
      "type": "function"
    },
    {
      "inputs": [],
      "name": "renounceOwnership",
      "outputs": [],
      "stateMutability": "nonpayable",
      "type": "function"
    },
    {
      "inputs": [
        {
          "internalType": "address",
          "name": "to",
          "type": "address"
        },
        {
          "internalType": "string",
          "name": "uri",
          "type": "string"
        }
      ],
      "name": "safeMint",
      "outputs": [],
      "stateMutability": "nonpayable",
      "type": "function"
    },
    {
      "inputs": [
        {
          "internalType": "address",
          "name": "from",
          "type": "address"
        },
        {
          "internalType": "address",
          "name": "to",
          "type": "address"
        },
        {
          "internalType": "uint256",
          "name": "tokenId",
          "type": "uint256"
        }
      ],
      "name": "safeTransferFrom",
      "outputs": [],
      "stateMutability": "nonpayable",
      "type": "function"
    },
    {
      "inputs": [
        {
          "internalType": "address",
          "name": "from",
          "type": "address"
        },
        {
          "internalType": "address",
          "name": "to",
          "type": "address"
        },
        {
          "internalType": "uint256",
          "name": "tokenId",
          "type": "uint256"
        },
        {
          "internalType": "bytes",
          "name": "data",
          "type": "bytes"
        }
      ],
      "name": "safeTransferFrom",
      "outputs": [],
      "stateMutability": "nonpayable",
      "type": "function"
    },
    {
      "inputs": [
        {
          "internalType": "address",
          "name": "to",
          "type": "address"
        }
      ],
      "name": "safeTransferTo",
      "outputs": [],
      "stateMutability": "nonpayable",
      "type": "function"
    },
    {
      "inputs": [
        {
          "internalType": "address",
          "name": "operator",
          "type": "address"
        },
        {
          "internalType": "bool",
          "name": "approved",
          "type": "bool"
        }
      ],
      "name": "setApprovalForAll",
      "outputs": [],
      "stateMutability": "nonpayable",
      "type": "function"
    },
    {
      "inputs": [
        {
          "internalType": "bytes4",
          "name": "interfaceId",
          "type": "bytes4"
        }
      ],
      "name": "supportsInterface",
      "outputs": [
        {
          "internalType": "bool",
          "name": "",
          "type": "bool"
        }
      ],
      "stateMutability": "view",
      "type": "function"
    },
    {
      "inputs": [],
      "name": "symbol",
      "outputs": [
        {
          "internalType": "string",
          "name": "",
          "type": "string"
        }
      ],
      "stateMutability": "view",
      "type": "function"
    },
    {
      "inputs": [
        {
          "internalType": "uint256",
          "name": "index",
          "type": "uint256"
        }
      ],
      "name": "tokenByIndex",
      "outputs": [
        {
          "internalType": "uint256",
          "name": "",
          "type": "uint256"
        }
      ],
      "stateMutability": "view",
      "type": "function"
    },
    {
      "inputs": [
        {
          "internalType": "address",
          "name": "owner",
          "type": "address"
        },
        {
          "internalType": "uint256",
          "name": "index",
          "type": "uint256"
        }
      ],
      "name": "tokenOfOwnerByIndex",
      "outputs": [
        {
          "internalType": "uint256",
          "name": "",
          "type": "uint256"
        }
      ],
      "stateMutability": "view",
      "type": "function"
    },
    {
      "inputs": [
        {
          "internalType": "uint256",
          "name": "tokenId",
          "type": "uint256"
        }
      ],
      "name": "tokenURI",
      "outputs": [
        {
          "internalType": "string",
          "name": "",
          "type": "string"
        }
      ],
      "stateMutability": "view",
      "type": "function"
    },
    {
      "inputs": [],
      "name": "totalSupply",
      "outputs": [
        {
          "internalType": "uint256",
          "name": "",
          "type": "uint256"
        }
      ],
      "stateMutability": "view",
      "type": "function"
    },
    {
      "inputs": [
        {
          "internalType": "address",
          "name": "from",
          "type": "address"
        },
        {
          "internalType": "address",
          "name": "to",
          "type": "address"
        },
        {
          "internalType": "uint256",
          "name": "tokenId",
          "type": "uint256"
        }
      ],
      "name": "transferFrom",
      "outputs": [],
      "stateMutability": "nonpayable",
      "type": "function"
    },
    {
      "inputs": [
        {
          "internalType": "address",
          "name": "newOwner",
          "type": "address"
        }
      ],
      "name": "transferOwnership",
      "outputs": [],
      "stateMutability": "nonpayable",
      "type": "function"
    }
  ],
  "bytecode": "0x60806040523480156200001157600080fd5b506040516200208f3803806200208f8339810160408190526200003491620001a5565b818160006200004483826200029e565b5060016200005382826200029e565b505050620000706200006a6200008a60201b60201c565b6200008e565b5050600c80546001600160a01b031916331790556200036a565b3390565b600b80546001600160a01b038381166001600160a01b0319831681179093556040519116919082907f8be0079c531659141344cd1fd0a4f28419497f9722a3daafe3b4186f6b6457e090600090a35050565b634e487b7160e01b600052604160045260246000fd5b600082601f8301126200010857600080fd5b81516001600160401b0380821115620001255762000125620000e0565b604051601f8301601f19908116603f01168101908282118183101715620001505762000150620000e0565b816040528381526020925086838588010111156200016d57600080fd5b600091505b8382101562000191578582018301518183018401529082019062000172565b600093810190920192909252949350505050565b60008060408385031215620001b957600080fd5b82516001600160401b0380821115620001d157600080fd5b620001df86838701620000f6565b93506020850151915080821115620001f657600080fd5b506200020585828601620000f6565b9150509250929050565b600181811c908216806200022457607f821691505b6020821081036200024557634e487b7160e01b600052602260045260246000fd5b50919050565b601f8211156200029957600081815260208120601f850160051c81016020861015620002745750805b601f850160051c820191505b81811015620002955782815560010162000280565b5050505b505050565b81516001600160401b03811115620002ba57620002ba620000e0565b620002d281620002cb84546200020f565b846200024b565b602080601f8311600181146200030a5760008415620002f15750858301515b600019600386901b1c1916600185901b17855562000295565b600085815260208120601f198616915b828110156200033b578886015182559484019460019091019084016200031a565b50858210156200035a5787850151600019600388901b60f8161c191681555b5050505050600190811b01905550565b611d15806200037a6000396000f3fe608060405234801561001057600080fd5b50600436106101375760003560e01c806370a08231116100b8578063a22cb4651161007c578063a22cb46514610271578063b88d4fde14610284578063c87b56dd14610297578063d204c45e146102aa578063e985e9c5146102bd578063f2fde38b146102f957600080fd5b806370a082311461022a578063715018a61461023d5780638da5cb5b146102455780638ddde27c1461025657806395d89b411461026957600080fd5b806323b872dd116100ff57806323b872dd146101cb5780632f745c59146101de57806342842e0e146101f15780634f6ccce7146102045780636352211e1461021757600080fd5b806301ffc9a71461013c57806306fdde0314610164578063081812fc14610179578063095ea7b3146101a457806318160ddd146101b9575b600080fd5b61014f61014a3660046116a0565b61030c565b60405190151581526020015b60405180910390f35b61016c61031d565b60405161015b919061170d565b61018c610187366004611720565b6103af565b6040516001600160a01b03909116815260200161015b565b6101b76101b2366004611755565b6103d6565b005b6008545b60405190815260200161015b565b6101b76101d936600461177f565b6104f0565b6101bd6101ec366004611755565b610521565b6101b76101ff36600461177f565b6105b7565b6101bd610212366004611720565b6105d2565b61018c610225366004611720565b610665565b6101bd6102383660046117bb565b6106c5565b6101b761074b565b600b546001600160a01b031661018c565b6101b76102643660046117bb565b61075f565b61016c61086b565b6101b761027f3660046117d6565b61087a565b6101b761029236600461189e565b610889565b61016c6102a5366004611720565b6108bb565b6101b76102b836600461191a565b6108c6565b61014f6102cb36600461197c565b6001600160a01b03918216600090815260056020908152604080832093909416825291909152205460ff1690565b6101b76103073660046117bb565b6108fd565b600061031782610976565b92915050565b60606000805461032c906119af565b80601f0160208091040260200160405190810160405280929190818152602001828054610358906119af565b80156103a55780601f1061037a576101008083540402835291602001916103a5565b820191906000526020600020905b81548152906001019060200180831161038857829003601f168201915b5050505050905090565b60006103ba8261099b565b506000908152600460205260409020546001600160a01b031690565b60006103e182610665565b9050806001600160a01b0316836001600160a01b0316036104535760405162461bcd60e51b815260206004820152602160248201527f4552433732313a20617070726f76616c20746f2063757272656e74206f776e656044820152603960f91b60648201526084015b60405180910390fd5b336001600160a01b038216148061046f575061046f81336102cb565b6104e15760405162461bcd60e51b815260206004820152603e60248201527f4552433732313a20617070726f76652063616c6c6572206973206e6f7420746f60448201527f6b656e206f776e6572206e6f7220617070726f76656420666f7220616c6c0000606482015260840161044a565b6104eb83836109fa565b505050565b6104fa3382610a68565b6105165760405162461bcd60e51b815260040161044a906119e9565b6104eb838383610ae7565b600061052c836106c5565b821061058e5760405162461bcd60e51b815260206004820152602b60248201527f455243373231456e756d657261626c653a206f776e657220696e646578206f7560448201526a74206f6620626f756e647360a81b606482015260840161044a565b506001600160a01b03919091166000908152600660209081526040808320938352929052205490565b6104eb83838360405180602001604052806000815250610889565b60006105dd60085490565b82106106405760405162461bcd60e51b815260206004820152602c60248201527f455243373231456e756d657261626c653a20676c6f62616c20696e646578206f60448201526b7574206f6620626f756e647360a01b606482015260840161044a565b6008828154811061065357610653611a37565b90600052602060002001549050919050565b6000818152600260205260408120546001600160a01b0316806103175760405162461bcd60e51b8152602060048201526018602482015277115490cdcc8c4e881a5b9d985b1a59081d1bdad95b88125160421b604482015260640161044a565b60006001600160a01b03821661072f5760405162461bcd60e51b815260206004820152602960248201527f4552433732313a2061646472657373207a65726f206973206e6f7420612076616044820152683634b21037bbb732b960b91b606482015260840161044a565b506001600160a01b031660009081526003602052604090205490565b610753610c8e565b61075d6000610ce8565b565b610767610c8e565b600c5460009061077f906001600160a01b03166106c5565b9050600081116107d15760405162461bcd60e51b815260206004820152601f60248201527f746865206f776e657220646f6573206e6f742068617665207265776172647300604482015260640161044a565b60008142443360405160200161080c93929190928352602083019190915260601b6bffffffffffffffffffffffff1916604082015260540190565b6040516020818303038152906040528051906020012060001c61082f9190611a63565b600c5490915060009061084b906001600160a01b031683610521565b600c54909150610865906001600160a01b031685836105b7565b50505050565b60606001805461032c906119af565b610885338383610d3a565b5050565b6108933383610a68565b6108af5760405162461bcd60e51b815260040161044a906119e9565b61086584848484610e08565b606061031782610e3b565b6108ce610c8e565b60006108d9600d5490565b90506108e9600d80546001019055565b6108f38382610f43565b6104eb8183610f5d565b610905610c8e565b6001600160a01b03811661096a5760405162461bcd60e51b815260206004820152602660248201527f4f776e61626c653a206e6577206f776e657220697320746865207a65726f206160448201526564647265737360d01b606482015260840161044a565b61097381610ce8565b50565b60006001600160e01b0319821663780e9d6360e01b1480610317575061031782610ff0565b6000818152600260205260409020546001600160a01b03166109735760405162461bcd60e51b8152602060048201526018602482015277115490cdcc8c4e881a5b9d985b1a59081d1bdad95b88125160421b604482015260640161044a565b600081815260046020526040902080546001600160a01b0319166001600160a01b0384169081179091558190610a2f82610665565b6001600160a01b03167f8c5be1e5ebec7d5bd14f71427d1e84f3dd0314c0f7b2291e5b200ac8c7c3b92560405160405180910390a45050565b600080610a7483610665565b9050806001600160a01b0316846001600160a01b03161480610abb57506001600160a01b0380821660009081526005602090815260408083209388168352929052205460ff165b80610adf5750836001600160a01b0316610ad4846103af565b6001600160a01b0316145b949350505050565b826001600160a01b0316610afa82610665565b6001600160a01b031614610b5e5760405162461bcd60e51b815260206004820152602560248201527f4552433732313a207472616e736665722066726f6d20696e636f72726563742060448201526437bbb732b960d91b606482015260840161044a565b6001600160a01b038216610bc05760405162461bcd60e51b8152602060048201526024808201527f4552433732313a207472616e7366657220746f20746865207a65726f206164646044820152637265737360e01b606482015260840161044a565b610bcb838383611040565b610bd66000826109fa565b6001600160a01b0383166000908152600360205260408120805460019290610bff908490611a8d565b90915550506001600160a01b0382166000908152600360205260408120805460019290610c2d908490611aa0565b909155505060008181526002602052604080822080546001600160a01b0319166001600160a01b0386811691821790925591518493918716917fddf252ad1be2c89b69c2b068fc378daa952ba7f163c4a11628f55a4df523b3ef91a4505050565b600b546001600160a01b0316331461075d5760405162461bcd60e51b815260206004820181905260248201527f4f776e61626c653a2063616c6c6572206973206e6f7420746865206f776e6572604482015260640161044a565b600b80546001600160a01b038381166001600160a01b0319831681179093556040519116919082907f8be0079c531659141344cd1fd0a4f28419497f9722a3daafe3b4186f6b6457e090600090a35050565b816001600160a01b0316836001600160a01b031603610d9b5760405162461bcd60e51b815260206004820152601960248201527f4552433732313a20617070726f766520746f2063616c6c657200000000000000604482015260640161044a565b6001600160a01b03838116600081815260056020908152604080832094871680845294825291829020805460ff191686151590811790915591519182527f17307eab39ab6107e8899845ad3d59bd9653f200f220920489ca2b5937696c31910160405180910390a3505050565b610e13848484610ae7565b610e1f8484848461104b565b6108655760405162461bcd60e51b815260040161044a90611ab3565b6060610e468261099b565b6000828152600a602052604081208054610e5f906119af565b80601f0160208091040260200160405190810160405280929190818152602001828054610e8b906119af565b8015610ed85780601f10610ead57610100808354040283529160200191610ed8565b820191906000526020600020905b815481529060010190602001808311610ebb57829003601f168201915b505050505090506000610ef660408051602081019091526000815290565b90508051600003610f08575092915050565b815115610f3a578082604051602001610f22929190611b05565b60405160208183030381529060405292505050919050565b610adf8461114c565b6108858282604051806020016040528060008152506111c0565b6000828152600260205260409020546001600160a01b0316610fd85760405162461bcd60e51b815260206004820152602e60248201527f45524337323155524953746f726167653a2055524920736574206f66206e6f6e60448201526d32bc34b9ba32b73a103a37b5b2b760911b606482015260840161044a565b6000828152600a602052604090206104eb8282611b82565b60006001600160e01b031982166380ac58cd60e01b148061102157506001600160e01b03198216635b5e139f60e01b145b8061031757506301ffc9a760e01b6001600160e01b0319831614610317565b6104eb8383836111f3565b60006001600160a01b0384163b1561114157604051630a85bd0160e11b81526001600160a01b0385169063150b7a029061108f903390899088908890600401611c42565b6020604051808303816000875af19250505080156110ca575060408051601f3d908101601f191682019092526110c791810190611c7f565b60015b611127573d8080156110f8576040519150601f19603f3d011682016040523d82523d6000602084013e6110fd565b606091505b50805160000361111f5760405162461bcd60e51b815260040161044a90611ab3565b805181602001fd5b6001600160e01b031916630a85bd0160e11b149050610adf565b506001949350505050565b60606111578261099b565b600061116e60408051602081019091526000815290565b9050600081511161118e57604051806020016040528060008152506111b9565b80611198846112ab565b6040516020016111a9929190611b05565b6040516020818303038152906040525b9392505050565b6111ca83836113ac565b6111d7600084848461104b565b6104eb5760405162461bcd60e51b815260040161044a90611ab3565b6001600160a01b03831661124e5761124981600880546000838152600960205260408120829055600182018355919091527ff3f7a9fe364faab93b216da50a3214154f22a0a2b415b23a84c8169e8b636ee30155565b611271565b816001600160a01b0316836001600160a01b0316146112715761127183826114fa565b6001600160a01b038216611288576104eb81611597565b826001600160a01b0316826001600160a01b0316146104eb576104eb8282611646565b6060816000036112d25750506040805180820190915260018152600360fc1b602082015290565b8160005b81156112fc57806112e681611c9c565b91506112f59050600a83611cb5565b91506112d6565b60008167ffffffffffffffff81111561131757611317611812565b6040519080825280601f01601f191660200182016040528015611341576020820181803683370190505b5090505b8415610adf57611356600183611a8d565b9150611363600a86611a63565b61136e906030611aa0565b60f81b81838151811061138357611383611a37565b60200101906001600160f81b031916908160001a9053506113a5600a86611cb5565b9450611345565b6001600160a01b0382166114025760405162461bcd60e51b815260206004820181905260248201527f4552433732313a206d696e7420746f20746865207a65726f2061646472657373604482015260640161044a565b6000818152600260205260409020546001600160a01b0316156114675760405162461bcd60e51b815260206004820152601c60248201527f4552433732313a20746f6b656e20616c7265616479206d696e74656400000000604482015260640161044a565b61147360008383611040565b6001600160a01b038216600090815260036020526040812080546001929061149c908490611aa0565b909155505060008181526002602052604080822080546001600160a01b0319166001600160a01b03861690811790915590518392907fddf252ad1be2c89b69c2b068fc378daa952ba7f163c4a11628f55a4df523b3ef908290a45050565b60006001611507846106c5565b6115119190611a8d565b600083815260076020526040902054909150808214611564576001600160a01b03841660009081526006602090815260408083208584528252808320548484528184208190558352600790915290208190555b5060009182526007602090815260408084208490556001600160a01b039094168352600681528383209183525290812055565b6008546000906115a990600190611a8d565b600083815260096020526040812054600880549394509092849081106115d1576115d1611a37565b9060005260206000200154905080600883815481106115f2576115f2611a37565b600091825260208083209091019290925582815260099091526040808220849055858252812055600880548061162a5761162a611cc9565b6001900381819060005260206000200160009055905550505050565b6000611651836106c5565b6001600160a01b039093166000908152600660209081526040808320868452825280832085905593825260079052919091209190915550565b6001600160e01b03198116811461097357600080fd5b6000602082840312156116b257600080fd5b81356111b98161168a565b60005b838110156116d85781810151838201526020016116c0565b50506000910152565b600081518084526116f98160208601602086016116bd565b601f01601f19169290920160200192915050565b6020815260006111b960208301846116e1565b60006020828403121561173257600080fd5b5035919050565b80356001600160a01b038116811461175057600080fd5b919050565b6000806040838503121561176857600080fd5b61177183611739565b946020939093013593505050565b60008060006060848603121561179457600080fd5b61179d84611739565b92506117ab60208501611739565b9150604084013590509250925092565b6000602082840312156117cd57600080fd5b6111b982611739565b600080604083850312156117e957600080fd5b6117f283611739565b91506020830135801515811461180757600080fd5b809150509250929050565b634e487b7160e01b600052604160045260246000fd5b600067ffffffffffffffff8084111561184357611843611812565b604051601f8501601f19908116603f0116810190828211818310171561186b5761186b611812565b8160405280935085815286868601111561188457600080fd5b858560208301376000602087830101525050509392505050565b600080600080608085870312156118b457600080fd5b6118bd85611739565b93506118cb60208601611739565b925060408501359150606085013567ffffffffffffffff8111156118ee57600080fd5b8501601f810187136118ff57600080fd5b61190e87823560208401611828565b91505092959194509250565b6000806040838503121561192d57600080fd5b61193683611739565b9150602083013567ffffffffffffffff81111561195257600080fd5b8301601f8101851361196357600080fd5b61197285823560208401611828565b9150509250929050565b6000806040838503121561198f57600080fd5b61199883611739565b91506119a660208401611739565b90509250929050565b600181811c908216806119c357607f821691505b6020821081036119e357634e487b7160e01b600052602260045260246000fd5b50919050565b6020808252602e908201527f4552433732313a2063616c6c6572206973206e6f7420746f6b656e206f776e6560408201526d1c881b9bdc88185c1c1c9bdd995960921b606082015260800190565b634e487b7160e01b600052603260045260246000fd5b634e487b7160e01b600052601260045260246000fd5b600082611a7257611a72611a4d565b500690565b634e487b7160e01b600052601160045260246000fd5b8181038181111561031757610317611a77565b8082018082111561031757610317611a77565b60208082526032908201527f4552433732313a207472616e7366657220746f206e6f6e20455243373231526560408201527131b2b4bb32b91034b6b83632b6b2b73a32b960711b606082015260800190565b60008351611b178184602088016116bd565b835190830190611b2b8183602088016116bd565b01949350505050565b601f8211156104eb57600081815260208120601f850160051c81016020861015611b5b5750805b601f850160051c820191505b81811015611b7a57828155600101611b67565b505050505050565b815167ffffffffffffffff811115611b9c57611b9c611812565b611bb081611baa84546119af565b84611b34565b602080601f831160018114611be55760008415611bcd5750858301515b600019600386901b1c1916600185901b178555611b7a565b600085815260208120601f198616915b82811015611c1457888601518255948401946001909101908401611bf5565b5085821015611c325787850151600019600388901b60f8161c191681555b5050505050600190811b01905550565b6001600160a01b0385811682528416602082015260408101839052608060608201819052600090611c75908301846116e1565b9695505050505050565b600060208284031215611c9157600080fd5b81516111b98161168a565b600060018201611cae57611cae611a77565b5060010190565b600082611cc457611cc4611a4d565b500490565b634e487b7160e01b600052603160045260246000fdfea264697066735822122062f6d5a1510fc1c6be329aea5d1240cdaf2cde5828838695feb657fc6e5fa62364736f6c63430008110033",
  "linkReferences": {},
  "deployedLinkReferences": {}
}